:100000000A128A11A92E00308A000408840A820785
:1000100000344D3455344734453453344834003477
:100D5200F901FA01FB01FC0183010A128A11182F21
:100D6200831603131114B52E83128C1DB92EBA2EBD
:100D7200B52E8C1108007008831203139300C12E44
:100D82008C1DC42EC52EC12E8C1108008316031390
:100D92001115CB2E83128C1DCF2ED02ECB2E8C1163
:100DA200080083160313940128308312031394005E
:100DB2003F30831603139300080002300A128A118F
:100DC20048270A128A1128300A128A1148270A1261
:100DD2008A110C300A128A1148270A128A118030AD
:100DE2000A128A1148270A128A110800F8000A2FEB
:100DF200780884000A128A1103200A128A110A1240
:100E02008A11A4270A128A110130F7007708F8071D
:100E12000A2F780884000A128A1103200A128A1102
:100E22000038031D152F162FF92E172F0800FF303B
:100E32008316031387008312031387018316031398
:100E4200860183120313860183160313880183121A
:100E5200031388010030F3000130F2008630F10004
:100E6200A030F0000A128A11D2260A128A110A123E
:100E72008A11DE260A128A1101300A128A11F72615
:100E82000A128A11442F442F0A128A110028F400F0
:100E92007408F20003300310F20DFF3E031D4C2FC5
:100EA2000310720DF039F3007308F5007408F0397D
:100EB200F2007208F6000A128A11B1260A128A1189
:100EC2004230F0000030F1000A128A11BC260A12E8
:100ED2008A117608F200F3010C307204F0007308F4
:100EE200F1000A128A11BC260A128A117608F2004F
:100EF200F30108307204F0007308F1000A128A113B
:100F0200BC260A128A117508F200F3010C30720431
:100F1200F0007308F1000A128A11BC260A128A1123
:100F22007508F200F30108307204F0007308F10052
:100F32000A128A11BC260A128A110A128A11C726BB
:100F42000A128A110800F4007408F2000330031038
:100F5200F20DFF3E031DA82F0310720DF039F300AE
:100F62007308F5007408F039F2007208F6000A12EC
:100F72008A11B1260A128A114230F0000030F100C3
:100F82000A128A11BC260A128A117608F200F301AB
:100F92000D307204F0007308F1000A128A11BC26A7
:100FA2000A128A117608F200F30109307204F00085
:100FB2007308F1000A128A11BC260A128A117508F6
:100FC200F200F3010D307204F0007308F1000A120E
:100FD2008A11BC260A128A117508F200F30109303F
:100FE2007204F0007308F1000A128A11BC260A1278
:0E0FF2008A110A128A11C7260A128A110800F3
:00000001FF
